{
  "contractName": "CustomDex",
  "abi": [
    {
      "inputs": [],
      "stateMutability": "nonpayable",
      "type": "constructor"
    },
    {
      "inputs": [
        {
          "internalType": "string",
          "name": "",
          "type": "string"
        }
      ],
      "name": "tokenInstanceMap",
      "outputs": [
        {
          "internalType": "contract ERC20",
          "name": "",
          "type": "address"
        }
      ],
      "stateMutability": "view",
      "type": "function",
      "constant": true
    },
    {
      "inputs": [
        {
          "internalType": "uint256",
          "name": "",
          "type": "uint256"
        }
      ],
      "name": "tokens",
      "outputs": [
        {
          "internalType": "string",
          "name": "",
          "type": "string"
        }
      ],
      "stateMutability": "view",
      "type": "function",
      "constant": true
    },
    {
      "inputs": [
        {
          "internalType": "string",
          "name": "tokenName",
          "type": "string"
        },
        {
          "internalType": "address",
          "name": "_address",
          "type": "address"
        }
      ],
      "name": "getBalance",
      "outputs": [
        {
          "internalType": "uint256",
          "name": "",
          "type": "uint256"
        }
      ],
      "stateMutability": "view",
      "type": "function",
      "constant": true
    },
    {
      "inputs": [
        {
          "internalType": "string",
          "name": "tokenName",
          "type": "string"
        }
      ],
      "name": "getTotalSupply",
      "outputs": [
        {
          "internalType": "uint256",
          "name": "",
          "type": "uint256"
        }
      ],
      "stateMutability": "view",
      "type": "function",
      "constant": true
    },
    {
      "inputs": [
        {
          "internalType": "string",
          "name": "tokenName",
          "type": "string"
        }
      ],
      "name": "getName",
      "outputs": [
        {
          "internalType": "string",
          "name": "",
          "type": "string"
        }
      ],
      "stateMutability": "view",
      "type": "function",
      "constant": true
    },
    {
      "inputs": [
        {
          "internalType": "string",
          "name": "tokenName",
          "type": "string"
        }
      ],
      "name": "getTokenAddress",
      "outputs": [
        {
          "internalType": "address",
          "name": "",
          "type": "address"
        }
      ],
      "stateMutability": "view",
      "type": "function",
      "constant": true
    },
    {
      "inputs": [],
      "name": "getEthBalance",
      "outputs": [
        {
          "internalType": "uint256",
          "name": "",
          "type": "uint256"
        }
      ],
      "stateMutability": "view",
      "type": "function",
      "constant": true
    },
    {
      "inputs": [
        {
          "internalType": "string",
          "name": "tokenName",
          "type": "string"
        }
      ],
      "name": "swapEthToToken",
      "outputs": [
        {
          "internalType": "uint256",
          "name": "",
          "type": "uint256"
        }
      ],
      "stateMutability": "payable",
      "type": "function",
      "payable": true
    },
    {
      "inputs": [
        {
          "internalType": "string",
          "name": "tokenName",
          "type": "string"
        },
        {
          "internalType": "uint256",
          "name": "_amount",
          "type": "uint256"
        }
      ],
      "name": "swapTokenToEth",
      "outputs": [
        {
          "internalType": "uint256",
          "name": "",
          "type": "uint256"
        }
      ],
      "stateMutability": "nonpayable",
      "type": "function"
    },
    {
      "inputs": [
        {
          "internalType": "string",
          "name": "srcTokenName",
          "type": "string"
        },
        {
          "internalType": "string",
          "name": "destTokenName",
          "type": "string"
        },
        {
          "internalType": "uint256",
          "name": "_amount",
          "type": "uint256"
        }
      ],
      "name": "swapTokenToToken",
      "outputs": [],
      "stateMutability": "nonpayable",
      "type": "function"
    }
  ],
  "bytecode": "0x608060405260405180606001604052806040518060400160405280600581526020017f436f696e4100000000000000000000000000000000000000000000000000000081525081526020016040518060400160405280600581526020017f436f696e4200000000000000000000000000000000000000000000000000000081525081526020016040518060400160405280600581526020017f436f696e430000000000000000000000000000000000000000000000000000008152508152506000906003620000d092919062000281565b50655af3107a4000600255348015620000e857600080fd5b5060005b6000805490508110156200027a57600080828154811062000136577f4e487b7100000000000000000000000000000000000000000000000000000000600052603260045260246000fd5b90600052602060002001600083815481106200017b577f4e487b7100000000000000000000000000000000000000000000000000000000600052603260045260246000fd5b906000526020600020016040516200019390620002e8565b620001a092919062000544565b604051809103906000f080158015620001bd573d6000803e3d6000fd5b50905080600160008481548110620001fe577f4e487b7100000000000000000000000000000000000000000000000000000000600052603260045260246000fd5b906000526020600020016040516200021791906200052b565b908152602001604051809103902060006101000a81548173ffffffffffffffffffffffffffffffffffffffff021916908373ffffffffffffffffffffffffffffffffffffffff1602179055505080806200027190620005f0565b915050620000ec565b506200069c565b828054828255906000526020600020908101928215620002d5579160200282015b82811115620002d4578251829080519060200190620002c3929190620002f6565b5091602001919060010190620002a2565b5b509050620002e4919062000387565b5090565b6118c280620019fa83390190565b8280546200030490620005ba565b90600052602060002090601f01602090048101928262000328576000855562000374565b82601f106200034357805160ff191683800117855562000374565b8280016001018555821562000374579182015b828111156200037357825182559160200191906001019062000356565b5b509050620003839190620003af565b5090565b5b80821115620003ab5760008181620003a19190620003ce565b5060010162000388565b5090565b5b80821115620003ca576000816000905550600101620003b0565b5090565b508054620003dc90620005ba565b6000825580601f10620003f0575062000411565b601f016020900490600052602060002090810190620004109190620003af565b5b50565b600081546200042381620005ba565b6200042f818662000594565b945060018216600081146200044d5760018114620004605762000497565b60ff198316865260208601935062000497565b6200046b856200057f565b60005b838110156200048f578154818901526001820191506020810190506200046e565b808801955050505b50505092915050565b60008154620004af81620005ba565b620004bb8186620005a5565b94506001821660008114620004d95760018114620004eb5762000522565b60ff1983168652818601935062000522565b620004f6856200057f565b60005b838110156200051a57815481890152600182019150602081019050620004f9565b838801955050505b50505092915050565b6000620005398284620004a0565b915081905092915050565b6000604082019050818103600083015262000560818562000414565b9050818103602083015262000576818462000414565b90509392505050565b60008190508160005260206000209050919050565b600082825260208201905092915050565b600081905092915050565b6000819050919050565b60006002820490506001821680620005d357607f821691505b60208210811415620005ea57620005e96200066d565b5b50919050565b6000620005fd82620005b0565b91507fffffffffffffffffffffffffffffffffffffffffffffffffffffffffffffffff8214156200063357620006326200063e565b5b600182019050919050565b7f4e487b7100000000000000000000000000000000000000000000000000000000600052601160045260246000fd5b7f4e487b7100000000000000000000000000000000000000000000000000000000600052602260045260246000fd5b61134e80620006ac6000396000f3fe6080604052600436106100915760003560e01c806389f4b3171161005957806389f4b317146101a8578063a93325ed146101e5578063bf015aae14610222578063c40912361461024b578063db6f63ee1461028857610091565b80634f64b2be146100965780635463109e146100d357806363fcf7c5146101105780636932cf811461014057806370ed0ada1461017d575b600080fd5b3480156100a257600080fd5b506100bd60048036038101906100b89190610dae565b6102c5565b6040516100ca9190610f67565b60405180910390f35b3480156100df57600080fd5b506100fa60048036038101906100f59190610c05565b610371565b6040516101079190610fa9565b60405180910390f35b61012a60048036038101906101259190610c05565b610436565b6040516101379190610fa9565b60405180910390f35b34801561014c57600080fd5b5061016760048036038101906101629190610c05565b61053f565b6040516101749190610f67565b60405180910390f35b34801561018957600080fd5b50610192610609565b60405161019f9190610fa9565b60405180910390f35b3480156101b457600080fd5b506101cf60048036038101906101ca9190610c87565b610611565b6040516101dc9190610fa9565b60405180910390f35b3480156101f157600080fd5b5061020c60048036038101906102079190610c05565b6106e2565b6040516102199190610f4c565b60405180910390f35b34801561022e57600080fd5b5061024960048036038101906102449190610cdb565b61072b565b005b34801561025757600080fd5b50610272600480360381019061026d9190610c05565b6108da565b60405161027f9190610ed1565b60405180910390f35b34801561029457600080fd5b506102af60048036038101906102aa9190610d5a565b610922565b6040516102bc9190610fa9565b60405180910390f35b600081815481106102d557600080fd5b9060005260206000200160009150905080546102f09061117a565b80601f016020809104026020016040519081016040528092919081815260200182805461031c9061117a565b80156103695780601f1061033e57610100808354040283529160200191610369565b820191906000526020600020905b81548152906001019060200180831161034c57829003601f168201915b505050505081565b60006001826040516103839190610eba565b908152602001604051809103902060009054906101000a900473ffffffffffffffffffffffffffffffffffffffff1673ffffffffffffffffffffffffffffffffffffffff166318160ddd6040518163ffffffff1660e01b815260040160206040518083038186803b1580156103f757600080fd5b505afa15801561040b573d6000803e3d6000fd5b505050506040513d601f19601f8201168201806040525081019061042f9190610dd7565b9050919050565b6000803490506000670de0b6b3a7640000600254836104559190611041565b61045f9190611072565b90506001846040516104719190610eba565b908152602001604051809103902060009054906101000a900473ffffffffffffffffffffffffffffffffffffffff1673ffffffffffffffffffffffffffffffffffffffff1663a9059cbb33836040518363ffffffff1660e01b81526004016104da929190610f23565b602060405180830381600087803b1580156104f457600080fd5b505af1158015610508573d6000803e3d6000fd5b505050506040513d601f19601f8201168201806040525081019061052c9190610bdc565b61053557600080fd5b8092505050919050565b60606001826040516105519190610eba565b908152602001604051809103902060009054906101000a900473ffffffffffffffffffffffffffffffffffffffff1673ffffffffffffffffffffffffffffffffffffffff166306fdde036040518163ffffffff1660e01b815260040160006040518083038186803b1580156105c557600080fd5b505afa1580156105d9573d6000803e3d6000fd5b505050506040513d6000823e3d601f19601f820116820180604052508101906106029190610c46565b9050919050565b600047905090565b60006001836040516106239190610eba565b908152602001604051809103902060009054906101000a900473ffffffffffffffffffffffffffffffffffffffff1673ffffffffffffffffffffffffffffffffffffffff166370a08231836040518263ffffffff1660e01b815260040161068a9190610ed1565b60206040518083038186803b1580156106a257600080fd5b505afa1580156106b6573d6000803e3d6000fd5b505050506040513d601f19601f820116820180604052508101906106da9190610dd7565b905092915050565b6001818051602081018201805184825260208301602085012081835280955050505050506000915054906101000a900473ffffffffffffffffffffffffffffffffffffffff1681565b60018360405161073b9190610eba565b908152602001604051809103902060009054906101000a900473ffffffffffffffffffffffffffffffffffffffff1673ffffffffffffffffffffffffffffffffffffffff166323b872dd3330846040518463ffffffff1660e01b81526004016107a693929190610eec565b602060405180830381600087803b1580156107c057600080fd5b505af11580156107d4573d6000803e3d6000fd5b505050506040513d601f19601f820116820180604052508101906107f89190610bdc565b61080157600080fd5b6001826040516108119190610eba565b908152602001604051809103902060009054906101000a900473ffffffffffffffffffffffffffffffffffffffff1673ffffffffffffffffffffffffffffffffffffffff1663a9059cbb33836040518363ffffffff1660e01b815260040161087a929190610f23565b602060405180830381600087803b15801561089457600080fd5b505af11580156108a8573d6000803e3d6000fd5b505050506040513d601f19601f820116820180604052508101906108cc9190610bdc565b6108d557600080fd5b505050565b60006001826040516108ec9190610eba565b908152602001604051809103902060009054906101000a900473ffffffffffffffffffffffffffffffffffffffff169050919050565b600080670de0b6b3a7640000836109399190611041565b905060006002548261094b9190611072565b905080471015610990576040517f08c379a000000000000000000000000000000000000000000000000000000000815260040161098790610f89565b60405180910390fd5b3373ffffffffffffffffffffffffffffffffffffffff166108fc829081150290604051600060405180830381858888f193505050501580156109d6573d6000803e3d6000fd5b506001856040516109e79190610eba565b908152602001604051809103902060009054906101000a900473ffffffffffffffffffffffffffffffffffffffff1673ffffffffffffffffffffffffffffffffffffffff166323b872dd3330876040518463ffffffff1660e01b8152600401610a5293929190610eec565b602060405180830381600087803b158015610a6c57600080fd5b505af1158015610a80573d6000803e3d6000fd5b505050506040513d601f19601f82011682018060405250810190610aa49190610bdc565b610aad57600080fd5b809250505092915050565b6000610acb610ac684610fe9565b610fc4565b905082815260208101848484011115610ae357600080fd5b610aee848285611138565b509392505050565b6000610b09610b0484610fe9565b610fc4565b905082815260208101848484011115610b2157600080fd5b610b2c848285611147565b509392505050565b600081359050610b43816112d3565b92915050565b600081519050610b58816112ea565b92915050565b600082601f830112610b6f57600080fd5b8135610b7f848260208601610ab8565b91505092915050565b600082601f830112610b9957600080fd5b8151610ba9848260208601610af6565b91505092915050565b600081359050610bc181611301565b92915050565b600081519050610bd681611301565b92915050565b600060208284031215610bee57600080fd5b6000610bfc84828501610b49565b91505092915050565b600060208284031215610c1757600080fd5b600082013567ffffffffffffffff811115610c3157600080fd5b610c3d84828501610b5e565b91505092915050565b600060208284031215610c5857600080fd5b600082015167ffffffffffffffff811115610c7257600080fd5b610c7e84828501610b88565b91505092915050565b60008060408385031215610c9a57600080fd5b600083013567ffffffffffffffff811115610cb457600080fd5b610cc085828601610b5e565b9250506020610cd185828601610b34565b9150509250929050565b600080600060608486031215610cf057600080fd5b600084013567ffffffffffffffff811115610d0a57600080fd5b610d1686828701610b5e565b935050602084013567ffffffffffffffff811115610d3357600080fd5b610d3f86828701610b5e565b9250506040610d5086828701610bb2565b9150509250925092565b60008060408385031215610d6d57600080fd5b600083013567ffffffffffffffff811115610d8757600080fd5b610d9385828601610b5e565b9250506020610da485828601610bb2565b9150509250929050565b600060208284031215610dc057600080fd5b6000610dce84828501610bb2565b91505092915050565b600060208284031215610de957600080fd5b6000610df784828501610bc7565b91505092915050565b610e09816110cc565b82525050565b610e1881611114565b82525050565b6000610e298261101a565b610e338185611025565b9350610e43818560208601611147565b610e4c81611299565b840191505092915050565b6000610e628261101a565b610e6c8185611036565b9350610e7c818560208601611147565b80840191505092915050565b6000610e95601e83611025565b9150610ea0826112aa565b602082019050919050565b610eb48161110a565b82525050565b6000610ec68284610e57565b915081905092915050565b6000602082019050610ee66000830184610e00565b92915050565b6000606082019050610f016000830186610e00565b610f0e6020830185610e00565b610f1b6040830184610eab565b949350505050565b6000604082019050610f386000830185610e00565b610f456020830184610eab565b9392505050565b6000602082019050610f616000830184610e0f565b92915050565b60006020820190508181036000830152610f818184610e1e565b905092915050565b60006020820190508181036000830152610fa281610e88565b9050919050565b6000602082019050610fbe6000830184610eab565b92915050565b6000610fce610fdf565b9050610fda82826111ac565b919050565b6000604051905090565b600067ffffffffffffffff8211156110045761100361126a565b5b61100d82611299565b9050602081019050919050565b600081519050919050565b600082825260208201905092915050565b600081905092915050565b600061104c8261110a565b91506110578361110a565b9250826110675761106661120c565b5b828204905092915050565b600061107d8261110a565b91506110888361110a565b9250817fffffffffffffffffffffffffffffffffffffffffffffffffffffffffffffffff04831182151516156110c1576110c06111dd565b5b828202905092915050565b60006110d7826110ea565b9050919050565b60008115159050919050565b600073ffffffffffffffffffffffffffffffffffffffff82169050919050565b6000819050919050565b600061111f82611126565b9050919050565b6000611131826110ea565b9050919050565b82818337600083830152505050565b60005b8381101561116557808201518184015260208101905061114a565b83811115611174576000848401525b50505050565b6000600282049050600182168061119257607f821691505b602082108114156111a6576111a561123b565b5b50919050565b6111b582611299565b810181811067ffffffffffffffff821117156111d4576111d361126a565b5b80604052505050565b7f4e487b7100000000000000000000000000000000000000000000000000000000600052601160045260246000fd5b7f4e487b7100000000000000000000000000000000000000000000000000000000600052601260045260246000fd5b7f4e487b7100000000000000000000000000000000000000000000000000000000600052602260045260246000fd5b7f4e487b7100000000000000000000000000000000000000000000000000000000600052604160045260246000fd5b6000601f19601f8301169050919050565b7f4465782069732072756e6e696e67206c6f77206f6e2062616c616e63652e0000600082015250565b6112dc816110cc565b81146112e757600080fd5b50565b6112f3816110de565b81146112fe57600080fd5b50565b61130a8161110a565b811461131557600080fd5b5056fea26469706673582212205acb3cb854c73780cba8da47570cca8bfe77bfd1ecbf0f49eeb25b20bc2951ff64736f6c6343000804003360806040523480156200001157600080fd5b50604051620018c2380380620018c2833981810160405281019062000037919062000335565b818181600390805190602001906200005192919062000213565b5080600490805190602001906200006a92919062000213565b5050506200008833683635c9adc5dea000006200009060201b60201c565b50506200065f565b600073ffffffffffffffffffffffffffffffffffffffff168273ffffffffffffffffffffffffffffffffffffffff16141562000103576040517f08c379a0000000000000000000000000000000000000000000000000000000008152600401620000fa90620003e0565b60405180910390fd5b62000117600083836200020960201b60201c565b80600260008282546200012b91906200048f565b92505081905550806000808473ffffffffffffffffffffffffffffffffffffffff1673ffffffffffffffffffffffffffffffffffffffff16815260200190815260200160002060008282546200018291906200048f565b925050819055508173ffffffffffffffffffffffffffffffffffffffff16600073ffffffffffffffffffffffffffffffffffffffff167fddf252ad1be2c89b69c2b068fc378daa952ba7f163c4a11628f55a4df523b3ef83604051620001e9919062000402565b60405180910390a362000205600083836200020e60201b60201c565b5050565b505050565b505050565b82805462000221906200052c565b90600052602060002090601f01602090048101928262000245576000855562000291565b82601f106200026057805160ff191683800117855562000291565b8280016001018555821562000291579182015b828111156200029057825182559160200191906001019062000273565b5b509050620002a09190620002a4565b5090565b5b80821115620002bf576000816000905550600101620002a5565b5090565b6000620002da620002d48462000448565b6200041f565b905082815260208101848484011115620002f357600080fd5b62000300848285620004f6565b509392505050565b600082601f8301126200031a57600080fd5b81516200032c848260208601620002c3565b91505092915050565b600080604083850312156200034957600080fd5b600083015167ffffffffffffffff8111156200036457600080fd5b620003728582860162000308565b925050602083015167ffffffffffffffff8111156200039057600080fd5b6200039e8582860162000308565b9150509250929050565b6000620003b7601f836200047e565b9150620003c48262000636565b602082019050919050565b620003da81620004ec565b82525050565b60006020820190508181036000830152620003fb81620003a8565b9050919050565b6000602082019050620004196000830184620003cf565b92915050565b60006200042b6200043e565b905062000439828262000562565b919050565b6000604051905090565b600067ffffffffffffffff821115620004665762000465620005f6565b5b620004718262000625565b9050602081019050919050565b600082825260208201905092915050565b60006200049c82620004ec565b9150620004a983620004ec565b9250827fffffffffffffffffffffffffffffffffffffffffffffffffffffffffffffffff03821115620004e157620004e062000598565b5b828201905092915050565b6000819050919050565b60005b8381101562000516578082015181840152602081019050620004f9565b8381111562000526576000848401525b50505050565b600060028204905060018216806200054557607f821691505b602082108114156200055c576200055b620005c7565b5b50919050565b6200056d8262000625565b810181811067ffffffffffffffff821117156200058f576200058e620005f6565b5b80604052505050565b7f4e487b7100000000000000000000000000000000000000000000000000000000600052601160045260246000fd5b7f4e487b7100000000000000000000000000000000000000000000000000000000600052602260045260246000fd5b7f4e487b7100000000000000000000000000000000000000000000000000000000600052604160045260246000fd5b6000601f19601f8301169050919050565b7f45524332303a206d696e7420746f20746865207a65726f206164647265737300600082015250565b611253806200066f6000396000f3fe608060405234801561001057600080fd5b50600436106100a95760003560e01c80633950935111610071578063395093511461016857806370a082311461019857806395d89b41146101c8578063a457c2d7146101e6578063a9059cbb14610216578063dd62ed3e14610246576100a9565b806306fdde03146100ae578063095ea7b3146100cc57806318160ddd146100fc57806323b872dd1461011a578063313ce5671461014a575b600080fd5b6100b6610276565b6040516100c39190610d19565b60405180910390f35b6100e660048036038101906100e19190610b67565b610308565b6040516100f39190610cfe565b60405180910390f35b61010461032b565b6040516101119190610e1b565b60405180910390f35b610134600480360381019061012f9190610b18565b610335565b6040516101419190610cfe565b60405180910390f35b610152610364565b60405161015f9190610e36565b60405180910390f35b610182600480360381019061017d9190610b67565b61036d565b60405161018f9190610cfe565b60405180910390f35b6101b260048036038101906101ad9190610ab3565b6103a4565b6040516101bf9190610e1b565b60405180910390f35b6101d06103ec565b6040516101dd9190610d19565b60405180910390f35b61020060048036038101906101fb9190610b67565b61047e565b60405161020d9190610cfe565b60405180910390f35b610230600480360381019061022b9190610b67565b6104f5565b60405161023d9190610cfe565b60405180910390f35b610260600480360381019061025b9190610adc565b610518565b60405161026d9190610e1b565b60405180910390f35b60606003805461028590610f4b565b80601f01602080910402602001604051908101604052809291908181526020018280546102b190610f4b565b80156102fe5780601f106102d3576101008083540402835291602001916102fe565b820191906000526020600020905b8154815290600101906020018083116102e157829003601f168201915b5050505050905090565b60008061031361059f565b90506103208185856105a7565b600191505092915050565b6000600254905090565b60008061034061059f565b905061034d858285610772565b6103588585856107fe565b60019150509392505050565b60006012905090565b60008061037861059f565b905061039981858561038a8589610518565b6103949190610e6d565b6105a7565b600191505092915050565b60008060008373ffffffffffffffffffffffffffffffffffffffff1673ffffffffffffffffffffffffffffffffffffffff168152602001908152602001600020549050919050565b6060600480546103fb90610f4b565b80601f016020809104026020016040519081016040528092919081815260200182805461042790610f4b565b80156104745780601f1061044957610100808354040283529160200191610474565b820191906000526020600020905b81548152906001019060200180831161045757829003601f168201915b5050505050905090565b60008061048961059f565b905060006104978286610518565b9050838110156104dc576040517f08c379a00000000000000000000000000000000000000000000000000000000081526004016104d390610dfb565b60405180910390fd5b6104e982868684036105a7565b60019250505092915050565b60008061050061059f565b905061050d8185856107fe565b600191505092915050565b6000600160008473ffffffffffffffffffffffffffffffffffffffff1673ffffffffffffffffffffffffffffffffffffffff16815260200190815260200160002060008373ffffffffffffffffffffffffffffffffffffffff1673ffffffffffffffffffffffffffffffffffffffff16815260200190815260200160002054905092915050565b600033905090565b600073ffffffffffffffffffffffffffffffffffffffff168373ffffffffffffffffffffffffffffffffffffffff161415610617576040517f08c379a000000000000000000000000000000000000000000000000000000000815260040161060e90610ddb565b60405180910390fd5b600073ffffffffffffffffffffffffffffffffffffffff168273ffffffffffffffffffffffffffffffffffffffff161415610687576040517f08c379a000000000000000000000000000000000000000000000000000000000815260040161067e90610d5b565b60405180910390fd5b80600160008573ffffffffffffffffffffffffffffffffffffffff1673ffffffffffffffffffffffffffffffffffffffff16815260200190815260200160002060008473ffffffffffffffffffffffffffffffffffffffff1673ffffffffffffffffffffffffffffffffffffffff168152602001908152602001600020819055508173ffffffffffffffffffffffffffffffffffffffff168373ffffffffffffffffffffffffffffffffffffffff167f8c5be1e5ebec7d5bd14f71427d1e84f3dd0314c0f7b2291e5b200ac8c7c3b925836040516107659190610e1b565b60405180910390a3505050565b600061077e8484610518565b90507fffffffffffffffffffffffffffffffffffffffffffffffffffffffffffffffff81146107f857818110156107ea576040517f08c379a00000000000000000000000000000000000000000000000000000000081526004016107e190610d7b565b60405180910390fd5b6107f784848484036105a7565b5b50505050565b600073ffffffffffffffffffffffffffffffffffffffff168373ffffffffffffffffffffffffffffffffffffffff16141561086e576040517f08c379a000000000000000000000000000000000000000000000000000000000815260040161086590610dbb565b60405180910390fd5b600073ffffffffffffffffffffffffffffffffffffffff168273ffffffffffffffffffffffffffffffffffffffff1614156108de576040517f08c379a00000000000000000000000000000000000000000000000000000000081526004016108d590610d3b565b60405180910390fd5b6108e9838383610a7f565b60008060008573ffffffffffffffffffffffffffffffffffffffff1673ffffffffffffffffffffffffffffffffffffffff1681526020019081526020016000205490508181101561096f576040517f08c379a000000000000000000000000000000000000000000000000000000000815260040161096690610d9b565b60405180910390fd5b8181036000808673ffffffffffffffffffffffffffffffffffffffff1673ffffffffffffffffffffffffffffffffffffffff16815260200190815260200160002081905550816000808573ffffffffffffffffffffffffffffffffffffffff1673ffffffffffffffffffffffffffffffffffffffff1681526020019081526020016000206000828254610a029190610e6d565b925050819055508273ffffffffffffffffffffffffffffffffffffffff168473ffffffffffffffffffffffffffffffffffffffff167fddf252ad1be2c89b69c2b068fc378daa952ba7f163c4a11628f55a4df523b3ef84604051610a669190610e1b565b60405180910390a3610a79848484610a84565b50505050565b505050565b505050565b600081359050610a98816111ef565b92915050565b600081359050610aad81611206565b92915050565b600060208284031215610ac557600080fd5b6000610ad384828501610a89565b91505092915050565b60008060408385031215610aef57600080fd5b6000610afd85828601610a89565b9250506020610b0e85828601610a89565b9150509250929050565b600080600060608486031215610b2d57600080fd5b6000610b3b86828701610a89565b9350506020610b4c86828701610a89565b9250506040610b5d86828701610a9e565b9150509250925092565b60008060408385031215610b7a57600080fd5b6000610b8885828601610a89565b9250506020610b9985828601610a9e565b9150509250929050565b610bac81610ed5565b82525050565b6000610bbd82610e51565b610bc78185610e5c565b9350610bd7818560208601610f18565b610be081610fdb565b840191505092915050565b6000610bf8602383610e5c565b9150610c0382610fec565b604082019050919050565b6000610c1b602283610e5c565b9150610c268261103b565b604082019050919050565b6000610c3e601d83610e5c565b9150610c498261108a565b602082019050919050565b6000610c61602683610e5c565b9150610c6c826110b3565b604082019050919050565b6000610c84602583610e5c565b9150610c8f82611102565b604082019050919050565b6000610ca7602483610e5c565b9150610cb282611151565b604082019050919050565b6000610cca602583610e5c565b9150610cd5826111a0565b604082019050919050565b610ce981610f01565b82525050565b610cf881610f0b565b82525050565b6000602082019050610d136000830184610ba3565b92915050565b60006020820190508181036000830152610d338184610bb2565b905092915050565b60006020820190508181036000830152610d5481610beb565b9050919050565b60006020820190508181036000830152610d7481610c0e565b9050919050565b60006020820190508181036000830152610d9481610c31565b9050919050565b60006020820190508181036000830152610db481610c54565b9050919050565b60006020820190508181036000830152610dd481610c77565b9050919050565b60006020820190508181036000830152610df481610c9a565b9050919050565b60006020820190508181036000830152610e1481610cbd565b9050919050565b6000602082019050610e306000830184610ce0565b92915050565b6000602082019050610e4b6000830184610cef565b92915050565b600081519050919050565b600082825260208201905092915050565b6000610e7882610f01565b9150610e8383610f01565b9250827fffffffffffffffffffffffffffffffffffffffffffffffffffffffffffffffff03821115610eb857610eb7610f7d565b5b828201905092915050565b6000610ece82610ee1565b9050919050565b60008115159050919050565b600073ffffffffffffffffffffffffffffffffffffffff82169050919050565b6000819050919050565b600060ff82169050919050565b60005b83811015610f36578082015181840152602081019050610f1b565b83811115610f45576000848401525b50505050565b60006002820490506001821680610f6357607f821691505b60208210811415610f7757610f76610fac565b5b50919050565b7f4e487b7100000000000000000000000000000000000000000000000000000000600052601160045260246000fd5b7f4e487b7100000000000000000000000000000000000000000000000000000000600052602260045260246000fd5b6000601f19601f8301169050919050565b7f45524332303a207472616e7366657220746f20746865207a65726f206164647260008201527f6573730000000000000000000000000000000000000000000000000000000000602082015250565b7f45524332303a20617070726f766520746f20746865207a65726f20616464726560008201527f7373000000000000000000000000000000000000000000000000000000000000602082015250565b7f45524332303a20696e73756666696369656e7420616c6c6f77616e6365000000600082015250565b7f45524332303a207472616e7366657220616d6f756e742065786365656473206260008201527f616c616e63650000000000000000000000000000000000000000000000000000602082015250565b7f45524332303a207472616e736665722066726f6d20746865207a65726f20616460008201527f6472657373000000000000000000000000000000000000000000000000000000602082015250565b7f45524332303a20617070726f76652066726f6d20746865207a65726f2061646460008201527f7265737300000000000000000000000000000000000000000000000000000000602082015250565b7f45524332303a2064656372656173656420616c6c6f77616e63652062656c6f7760008201527f207a65726f000000000000000000000000000000000000000000000000000000602082015250565b6111f881610ec3565b811461120357600080fd5b50565b61120f81610f01565b811461121a57600080fd5b5056fea2646970667358221220f88cda9149393805f8a37c47c38f52e8bd65cc073e82895bf89b7915f7f97f1a64736f6c63430008040033",
  "immutableReferences": {},
  "source": "// SPDX-License-Identifier: GPL-3.0\n\npragma solidity ^0.8.4;\n\nimport \"@openzeppelin/contracts/token/ERC20/ERC20.sol\";\n\ncontract CustomToken is ERC20 {\n    constructor(string memory name, string memory symbol) ERC20(name, symbol){\n        _mint(msg.sender, 1000 * 10 ** 18);\n    }\n}\n\ncontract CustomDex {\n    // Custom tokens to be initialiazed\n    string[] public tokens = [\"CoinA\", \"CoinB\", \"CoinC\"];\n\n    // map to maintain the tokens and its instances\n    mapping(string => ERC20) public tokenInstanceMap;\n\n    // 1 CoinA/CoinB/COinC = 0.0001 eth\n    uint256 ethValue = 100000000000000;\n\n    // 0.0001 eth = 1 CoinA/CoinB/CoinC\n    // 1 CoinA/CoinB/CoinC = 1 CoinA/CoinB/CoinC\n\n    constructor() {\n        for (uint i=0; i<tokens.length; i++) {\n            CustomToken token = new CustomToken(tokens[i], tokens[i]);\n            tokenInstanceMap[tokens[i]] = token;\n        }\n    }\n\n    function getBalance(string memory tokenName, address _address) public view returns (uint256) {\n        return tokenInstanceMap[tokenName].balanceOf(_address);\n    }\n\n    function getTotalSupply(string memory tokenName) public view returns (uint256) {\n        return tokenInstanceMap[tokenName].totalSupply();\n    }\n\n    function getName(string memory tokenName) public view returns (string memory) {\n        return tokenInstanceMap[tokenName].name();\n    }\n\n    function getTokenAddress(string memory tokenName) public view returns (address) {\n        return address(tokenInstanceMap[tokenName]);\n    }\n\n    function getEthBalance() public view returns (uint256) {\n        return address(this).balance;\n    }\n\n    function swapEthToToken(string memory tokenName) public payable returns (uint256) {\n        uint256 inputValue = msg.value;\n        uint256 outputValue = (inputValue / ethValue) * 10 ** 18; // Convert to 18 decimal places\n        require(tokenInstanceMap[tokenName].transfer(msg.sender, outputValue));\n        return outputValue;\n    }\n\n    function swapTokenToEth(string memory tokenName, uint256 _amount) public returns (uint256) {\n        // Convert the token amount (ethValue) to exact amount (10)\n        uint256 exactAmount = _amount / 10 ** 18;\n        uint256 ethToBeTransferred = exactAmount * ethValue;\n        require(address(this).balance >= ethToBeTransferred, \"Dex is running low on balance.\");\n\n        payable(msg.sender).transfer(ethToBeTransferred);\n        require(tokenInstanceMap[tokenName].transferFrom(msg.sender, address(this), _amount));\n        return ethToBeTransferred;\n    }\n\n    function swapTokenToToken(string memory srcTokenName, string memory destTokenName, uint256 _amount) public {\n        require(tokenInstanceMap[srcTokenName].transferFrom(msg.sender, address(this), _amount));\n        require(tokenInstanceMap[destTokenName].transfer(msg.sender, _amount));\n    }\n}",
  "sourcePath": "C:\\Users\\ANON\\Downloads\\uniswap-clone-infura-youtube-main\\uniswap-clone-infura-youtube-main\\uniswap-contracts\\contracts\\CustomDex.sol",
  "compiler": {
    "name": "solc",
    "version": "0.8.4+commit.c7e474f2.Emscripten.clang"
  },
  "schemaVersion": "3.4.16",
  "updatedAt": "2024-12-23T13:35:30.578Z",
  "networkType": "ethereum",
  "devdoc": {
    "kind": "dev",
    "methods": {},
    "version": 1
  },
  "userdoc": {
    "kind": "user",
    "methods": {},
    "version": 1
  }
}