{
  "contractName": "MoonBoysSwap",
  "abi": [
    {
      "inputs": [],
      "stateMutability": "nonpayable",
      "type": "constructor"
    },
    {
      "inputs": [
        {
          "internalType": "string",
          "name": "",
          "type": "string"
        }
      ],
      "name": "tokenInstanceMap",
      "outputs": [
        {
          "internalType": "contract ERC20",
          "name": "",
          "type": "address"
        }
      ],
      "stateMutability": "view",
      "type": "function"
    },
    {
      "inputs": [
        {
          "internalType": "uint256",
          "name": "",
          "type": "uint256"
        }
      ],
      "name": "tokens",
      "outputs": [
        {
          "internalType": "string",
          "name": "",
          "type": "string"
        }
      ],
      "stateMutability": "view",
      "type": "function"
    },
    {
      "inputs": [
        {
          "internalType": "string",
          "name": "tokenName",
          "type": "string"
        },
        {
          "internalType": "address",
          "name": "_address",
          "type": "address"
        }
      ],
      "name": "getBalance",
      "outputs": [
        {
          "internalType": "uint256",
          "name": "",
          "type": "uint256"
        }
      ],
      "stateMutability": "view",
      "type": "function"
    },
    {
      "inputs": [
        {
          "internalType": "string",
          "name": "tokenName",
          "type": "string"
        }
      ],
      "name": "getTotalSupply",
      "outputs": [
        {
          "internalType": "uint256",
          "name": "",
          "type": "uint256"
        }
      ],
      "stateMutability": "view",
      "type": "function"
    },
    {
      "inputs": [
        {
          "internalType": "string",
          "name": "tokenName",
          "type": "string"
        }
      ],
      "name": "getName",
      "outputs": [
        {
          "internalType": "string",
          "name": "",
          "type": "string"
        }
      ],
      "stateMutability": "view",
      "type": "function"
    },
    {
      "inputs": [
        {
          "internalType": "string",
          "name": "tokenName",
          "type": "string"
        }
      ],
      "name": "getTokenAddress",
      "outputs": [
        {
          "internalType": "address",
          "name": "",
          "type": "address"
        }
      ],
      "stateMutability": "view",
      "type": "function"
    },
    {
      "inputs": [],
      "name": "getVsgBalance",
      "outputs": [
        {
          "internalType": "uint256",
          "name": "",
          "type": "uint256"
        }
      ],
      "stateMutability": "view",
      "type": "function"
    },
    {
      "inputs": [
        {
          "internalType": "string",
          "name": "tokenName",
          "type": "string"
        },
        {
          "internalType": "address",
          "name": "spender",
          "type": "address"
        }
      ],
      "name": "approveToken",
      "outputs": [],
      "stateMutability": "nonpayable",
      "type": "function"
    },
    {
      "inputs": [
        {
          "internalType": "string",
          "name": "tokenName",
          "type": "string"
        }
      ],
      "name": "swapVsgToToken",
      "outputs": [
        {
          "internalType": "uint256",
          "name": "",
          "type": "uint256"
        }
      ],
      "stateMutability": "payable",
      "type": "function"
    },
    {
      "inputs": [
        {
          "internalType": "string",
          "name": "tokenName",
          "type": "string"
        },
        {
          "internalType": "uint256",
          "name": "_amount",
          "type": "uint256"
        }
      ],
      "name": "swapTokenToVsg",
      "outputs": [
        {
          "internalType": "uint256",
          "name": "",
          "type": "uint256"
        }
      ],
      "stateMutability": "nonpayable",
      "type": "function"
    },
    {
      "inputs": [
        {
          "internalType": "string",
          "name": "srcTokenName",
          "type": "string"
        },
        {
          "internalType": "string",
          "name": "destTokenName",
          "type": "string"
        },
        {
          "internalType": "uint256",
          "name": "_amount",
          "type": "uint256"
        }
      ],
      "name": "swapTokenToToken",
      "outputs": [],
      "stateMutability": "nonpayable",
      "type": "function"
    }
  ],
  "bytecode": "0x608060405260405180606001604052806040518060400160405280600381526020017f4d4f42000000000000000000000000000000000000000000000000000000000081525081526020016040518060400160405280600381526020017f585858000000000000000000000000000000000000000000000000000000000081525081526020016040518060400160405280600381526020017f58595a00000000000000000000000000000000000000000000000000000000008152508152506000906003620000d092919062000216565b50661cc25c0f74f000600255348015620000e957600080fd5b5060005b6000805490508110156200020f57600080828154811062000113576200011262000311565b5b906000526020600020016000838154811062000134576200013362000311565b5b906000526020600020016040516200014c9062000276565b620001599291906200045a565b604051809103906000f08015801562000176573d6000803e3d6000fd5b5090508060016000848154811062000193576200019262000311565b5b90600052602060002001604051620001ac91906200052f565b908152602001604051809103902060006101000a81548173ffffffffffffffffffffffffffffffffffffffff021916908373ffffffffffffffffffffffffffffffffffffffff160217905550508080620002069062000581565b915050620000ed565b50620008ac565b82805482825590600052602060002090810192821562000263579160200282015b8281111562000262578251829081620002519190620007c5565b509160200191906001019062000237565b5b50905062000272919062000284565b5090565b611aba8062001f5883390190565b5b80821115620002a857600081816200029e9190620002ac565b5060010162000285565b5090565b508054620002ba906200036f565b6000825580601f10620002ce5750620002ef565b601f016020900490600052602060002090810190620002ee9190620002f2565b5b50565b5b808211156200030d576000816000905550600101620002f3565b5090565b7f4e487b7100000000000000000000000000000000000000000000000000000000600052603260045260246000fd5b7f4e487b7100000000000000000000000000000000000000000000000000000000600052602260045260246000fd5b600060028204905060018216806200038857607f821691505b6020821081036200039e576200039d62000340565b5b50919050565b600082825260208201905092915050565b60008190508160005260206000209050919050565b60008154620003d9816200036f565b620003e58186620003a4565b945060018216600081146200040357600181146200041a5762000451565b60ff19831686528115156020028601935062000451565b6200042585620003b5565b60005b83811015620004495781548189015260018201915060208101905062000428565b808801955050505b50505092915050565b60006040820190508181036000830152620004768185620003ca565b905081810360208301526200048c8184620003ca565b90509392505050565b600081905092915050565b60008154620004af816200036f565b620004bb818662000495565b94506001821660008114620004d95760018114620004ef5762000526565b60ff198316865281151582028601935062000526565b620004fa85620003b5565b60005b838110156200051e57815481890152600182019150602081019050620004fd565b838801955050505b50505092915050565b60006200053d8284620004a0565b915081905092915050565b7f4e487b7100000000000000000000000000000000000000000000000000000000600052601160045260246000fd5b6000819050919050565b60006200058e8262000577565b91507fffffffffffffffffffffffffffffffffffffffffffffffffffffffffffffffff8203620005c357620005c262000548565b5b600182019050919050565b600081519050919050565b7f4e487b7100000000000000000000000000000000000000000000000000000000600052604160045260246000fd5b60006020601f8301049050919050565b600082821b905092915050565b600060088302620006577fffffffffffffffffffffffffffffffffffffffffffffffffffffffffffffffff8262000618565b62000663868362000618565b95508019841693508086168417925050509392505050565b6000819050919050565b6000620006a6620006a06200069a8462000577565b6200067b565b62000577565b9050919050565b6000819050919050565b620006c28362000685565b620006da620006d182620006ad565b84845462000625565b825550505050565b600090565b620006f1620006e2565b620006fe818484620006b7565b505050565b5b8181101562000726576200071a600082620006e7565b60018101905062000704565b5050565b601f82111562000775576200073f81620003b5565b6200074a8462000608565b810160208510156200075a578190505b62000772620007698562000608565b83018262000703565b50505b505050565b600082821c905092915050565b60006200079a600019846008026200077a565b1980831691505092915050565b6000620007b5838362000787565b9150826002028217905092915050565b620007d082620005ce565b67ffffffffffffffff811115620007ec57620007eb620005d9565b5b620007f882546200036f565b620008058282856200072a565b600060209050601f8311600181146200083d576000841562000828578287015190505b620008348582620007a7565b865550620008a4565b601f1984166200084d86620003b5565b60005b82811015620008775784890151825560018201915060208501945060208101905062000850565b8683101562000897578489015162000893601f89168262000787565b8355505b6001600288020188555050505b505050505050565b61169c80620008bc6000396000f3fe60806040526004361061009c5760003560e01c80636932cf81116100645780636932cf811461019f57806389f4b317146101dc578063a93325ed14610219578063aad92c6214610256578063bf015aae14610293578063c4091236146102bc5761009c565b80630c1ccc73146100a15780634490c9df146100cc578063478bbb17146100f55780634f64b2be146101255780635463109e14610162575b600080fd5b3480156100ad57600080fd5b506100b66102f9565b6040516100c39190610c4f565b60405180910390f35b3480156100d857600080fd5b506100f360048036038101906100ee9190610e22565b610301565b005b61010f600480360381019061010a9190610e7e565b6103e2565b60405161011c9190610c4f565b60405180910390f35b34801561013157600080fd5b5061014c60048036038101906101479190610ef3565b610512565b6040516101599190610f9f565b60405180910390f35b34801561016e57600080fd5b5061018960048036038101906101849190610e7e565b6105be565b6040516101969190610c4f565b60405180910390f35b3480156101ab57600080fd5b506101c660048036038101906101c19190610e7e565b610674565b6040516101d39190610f9f565b60405180910390f35b3480156101e857600080fd5b5061020360048036038101906101fe9190610e22565b61072f565b6040516102109190610c4f565b60405180910390f35b34801561022557600080fd5b50610240600480360381019061023b9190610e7e565b6107f1565b60405161024d9190611020565b60405180910390f35b34801561026257600080fd5b5061027d6004803603810190610278919061103b565b61083a565b60405161028a9190610c4f565b60405180910390f35b34801561029f57600080fd5b506102ba60048036038101906102b59190611097565b6109f1565b005b3480156102c857600080fd5b506102e360048036038101906102de9190610e7e565b610bee565b6040516102f09190611131565b60405180910390f35b600047905090565b6001826040516103119190611188565b908152602001604051809103902060009054906101000a900473ffffffffffffffffffffffffffffffffffffffff1673ffffffffffffffffffffffffffffffffffffffff1663095ea7b3827fffffffffffffffffffffffffffffffffffffffffffffffffffffffffffffffff6040518363ffffffff1660e01b815260040161039a92919061119f565b6020604051808303816000875af11580156103b9573d6000803e3d6000fd5b505050506040513d601f19601f820116820180604052508101906103dd9190611200565b505050565b6000803490506000600254670de0b6b3a764000083610401919061125c565b61040b91906112cd565b905060018460405161041d9190611188565b908152602001604051809103902060009054906101000a900473ffffffffffffffffffffffffffffffffffffffff1673ffffffffffffffffffffffffffffffffffffffff1663a9059cbb33836040518363ffffffff1660e01b815260040161048692919061119f565b6020604051808303816000875af11580156104a5573d6000803e3d6000fd5b505050506040513d601f19601f820116820180604052508101906104c99190611200565b610508576040517f08c379a00000000000000000000000000000000000000000000000000000000081526004016104ff9061134a565b60405180910390fd5b8092505050919050565b6000818154811061052257600080fd5b90600052602060002001600091509050805461053d90611399565b80601f016020809104026020016040519081016040528092919081815260200182805461056990611399565b80156105b65780601f1061058b576101008083540402835291602001916105b6565b820191906000526020600020905b81548152906001019060200180831161059957829003601f168201915b505050505081565b60006001826040516105d09190611188565b908152602001604051809103902060009054906101000a900473ffffffffffffffffffffffffffffffffffffffff1673ffffffffffffffffffffffffffffffffffffffff166318160ddd6040518163ffffffff1660e01b8152600401602060405180830381865afa158015610649573d6000803e3d6000fd5b505050506040513d601f19601f8201168201806040525081019061066d91906113df565b9050919050565b60606001826040516106869190611188565b908152602001604051809103902060009054906101000a900473ffffffffffffffffffffffffffffffffffffffff1673ffffffffffffffffffffffffffffffffffffffff166306fdde036040518163ffffffff1660e01b8152600401600060405180830381865afa1580156106ff573d6000803e3d6000fd5b505050506040513d6000823e3d601f19601f82011682018060405250810190610728919061147c565b9050919050565b60006001836040516107419190611188565b908152602001604051809103902060009054906101000a900473ffffffffffffffffffffffffffffffffffffffff1673ffffffffffffffffffffffffffffffffffffffff166370a08231836040518263ffffffff1660e01b81526004016107a89190611131565b602060405180830381865afa1580156107c5573d6000803e3d6000fd5b505050506040513d601f19601f820116820180604052508101906107e991906113df565b905092915050565b6001818051602081018201805184825260208301602085012081835280955050505050506000915054906101000a900473ffffffffffffffffffffffffffffffffffffffff1681565b600080670de0b6b3a764000060025484610854919061125c565b61085e91906112cd565b9050804710156108a3576040517f08c379a000000000000000000000000000000000000000000000000000000000815260040161089a90611511565b60405180910390fd5b6001846040516108b39190611188565b908152602001604051809103902060009054906101000a900473ffffffffffffffffffffffffffffffffffffffff1673ffffffffffffffffffffffffffffffffffffffff166323b872dd3330866040518463ffffffff1660e01b815260040161091e93929190611531565b6020604051808303816000875af115801561093d573d6000803e3d6000fd5b505050506040513d601f19601f820116820180604052508101906109619190611200565b6109a0576040517f08c379a00000000000000000000000000000000000000000000000000000000081526004016109979061134a565b60405180910390fd5b3373ffffffffffffffffffffffffffffffffffffffff166108fc829081150290604051600060405180830381858888f193505050501580156109e6573d6000803e3d6000fd5b508091505092915050565b600183604051610a019190611188565b908152602001604051809103902060009054906101000a900473ffffffffffffffffffffffffffffffffffffffff1673ffffffffffffffffffffffffffffffffffffffff166323b872dd3330846040518463ffffffff1660e01b8152600401610a6c93929190611531565b6020604051808303816000875af1158015610a8b573d6000803e3d6000fd5b505050506040513d601f19601f82011682018060405250810190610aaf9190611200565b610aee576040517f08c379a0000000000000000000000000000000000000000000000000000000008152600401610ae5906115b4565b60405180910390fd5b600182604051610afe9190611188565b908152602001604051809103902060009054906101000a900473ffffffffffffffffffffffffffffffffffffffff1673ffffffffffffffffffffffffffffffffffffffff1663a9059cbb33836040518363ffffffff1660e01b8152600401610b6792919061119f565b6020604051808303816000875af1158015610b86573d6000803e3d6000fd5b505050506040513d601f19601f82011682018060405250810190610baa9190611200565b610be9576040517f08c379a0000000000000000000000000000000000000000000000000000000008152600401610be090611646565b60405180910390fd5b505050565b6000600182604051610c009190611188565b908152602001604051809103902060009054906101000a900473ffffffffffffffffffffffffffffffffffffffff169050919050565b6000819050919050565b610c4981610c36565b82525050565b6000602082019050610c646000830184610c40565b92915050565b6000604051905090565b600080fd5b600080fd5b600080fd5b600080fd5b6000601f19601f8301169050919050565b7f4e487b7100000000000000000000000000000000000000000000000000000000600052604160045260246000fd5b610cd182610c88565b810181811067ffffffffffffffff82111715610cf057610cef610c99565b5b80604052505050565b6000610d03610c6a565b9050610d0f8282610cc8565b919050565b600067ffffffffffffffff821115610d2f57610d2e610c99565b5b610d3882610c88565b9050602081019050919050565b82818337600083830152505050565b6000610d67610d6284610d14565b610cf9565b905082815260208101848484011115610d8357610d82610c83565b5b610d8e848285610d45565b509392505050565b600082601f830112610dab57610daa610c7e565b5b8135610dbb848260208601610d54565b91505092915050565b600073ffffffffffffffffffffffffffffffffffffffff82169050919050565b6000610def82610dc4565b9050919050565b610dff81610de4565b8114610e0a57600080fd5b50565b600081359050610e1c81610df6565b92915050565b60008060408385031215610e3957610e38610c74565b5b600083013567ffffffffffffffff811115610e5757610e56610c79565b5b610e6385828601610d96565b9250506020610e7485828601610e0d565b9150509250929050565b600060208284031215610e9457610e93610c74565b5b600082013567ffffffffffffffff811115610eb257610eb1610c79565b5b610ebe84828501610d96565b91505092915050565b610ed081610c36565b8114610edb57600080fd5b50565b600081359050610eed81610ec7565b92915050565b600060208284031215610f0957610f08610c74565b5b6000610f1784828501610ede565b91505092915050565b600081519050919050565b600082825260208201905092915050565b60005b83811015610f5a578082015181840152602081019050610f3f565b60008484015250505050565b6000610f7182610f20565b610f7b8185610f2b565b9350610f8b818560208601610f3c565b610f9481610c88565b840191505092915050565b60006020820190508181036000830152610fb98184610f66565b905092915050565b6000819050919050565b6000610fe6610fe1610fdc84610dc4565b610fc1565b610dc4565b9050919050565b6000610ff882610fcb565b9050919050565b600061100a82610fed565b9050919050565b61101a81610fff565b82525050565b60006020820190506110356000830184611011565b92915050565b6000806040838503121561105257611051610c74565b5b600083013567ffffffffffffffff8111156110705761106f610c79565b5b61107c85828601610d96565b925050602061108d85828601610ede565b9150509250929050565b6000806000606084860312156110b0576110af610c74565b5b600084013567ffffffffffffffff8111156110ce576110cd610c79565b5b6110da86828701610d96565b935050602084013567ffffffffffffffff8111156110fb576110fa610c79565b5b61110786828701610d96565b925050604061111886828701610ede565b9150509250925092565b61112b81610de4565b82525050565b60006020820190506111466000830184611122565b92915050565b600081905092915050565b600061116282610f20565b61116c818561114c565b935061117c818560208601610f3c565b80840191505092915050565b60006111948284611157565b915081905092915050565b60006040820190506111b46000830185611122565b6111c16020830184610c40565b9392505050565b60008115159050919050565b6111dd816111c8565b81146111e857600080fd5b50565b6000815190506111fa816111d4565b92915050565b60006020828403121561121657611215610c74565b5b6000611224848285016111eb565b91505092915050565b7f4e487b7100000000000000000000000000000000000000000000000000000000600052601160045260246000fd5b600061126782610c36565b915061127283610c36565b925082820261128081610c36565b915082820484148315176112975761129661122d565b5b5092915050565b7f4e487b7100000000000000000000000000000000000000000000000000000000600052601260045260246000fd5b60006112d882610c36565b91506112e383610c36565b9250826112f3576112f261129e565b5b828204905092915050565b7f546f6b656e207472616e73666572206661696c65642e00000000000000000000600082015250565b6000611334601683610f2b565b915061133f826112fe565b602082019050919050565b6000602082019050818103600083015261136381611327565b9050919050565b7f4e487b7100000000000000000000000000000000000000000000000000000000600052602260045260246000fd5b600060028204905060018216806113b157607f821691505b6020821081036113c4576113c361136a565b5b50919050565b6000815190506113d981610ec7565b92915050565b6000602082840312156113f5576113f4610c74565b5b6000611403848285016113ca565b91505092915050565b600061141f61141a84610d14565b610cf9565b90508281526020810184848401111561143b5761143a610c83565b5b611446848285610f3c565b509392505050565b600082601f83011261146357611462610c7e565b5b815161147384826020860161140c565b91505092915050565b60006020828403121561149257611491610c74565b5b600082015167ffffffffffffffff8111156114b0576114af610c79565b5b6114bc8482850161144e565b91505092915050565b7f4465782069732072756e6e696e67206c6f77206f6e2062616c616e63652e0000600082015250565b60006114fb601e83610f2b565b9150611506826114c5565b602082019050919050565b6000602082019050818103600083015261152a816114ee565b9050919050565b60006060820190506115466000830186611122565b6115536020830185611122565b6115606040830184610c40565b949350505050565b7f536f7572636520746f6b656e207472616e73666572206661696c65642e000000600082015250565b600061159e601d83610f2b565b91506115a982611568565b602082019050919050565b600060208201905081810360008301526115cd81611591565b9050919050565b7f44657374696e6174696f6e20746f6b656e207472616e73666572206661696c6560008201527f642e000000000000000000000000000000000000000000000000000000000000602082015250565b6000611630602283610f2b565b915061163b826115d4565b604082019050919050565b6000602082019050818103600083015261165f81611623565b905091905056fea2646970667358221220e6e8f446be192fc675120cfd8e71e4112b4df3e1f89a4f84b6ce3f555ca4a24664736f6c6343000815003360806040523480156200001157600080fd5b5060405162001aba38038062001aba8339818101604052810190620000379190620003a0565b818181600390816200004a919062000670565b5080600490816200005c919062000670565b5050506200008333710125dfa371a19e6f7cb54395ca00000000006200008b60201b60201c565b505062000872565b600073ffffffffffffffffffffffffffffffffffffffff168273ffffffffffffffffffffffffffffffffffffffff1603620000fd576040517f08c379a0000000000000000000000000000000000000000000000000000000008152600401620000f490620007b8565b60405180910390fd5b62000111600083836200020360201b60201c565b806002600082825462000125919062000809565b92505081905550806000808473ffffffffffffffffffffffffffffffffffffffff1673ffffffffffffffffffffffffffffffffffffffff16815260200190815260200160002060008282546200017c919062000809565b925050819055508173ffffffffffffffffffffffffffffffffffffffff16600073ffffffffffffffffffffffffffffffffffffffff167fddf252ad1be2c89b69c2b068fc378daa952ba7f163c4a11628f55a4df523b3ef83604051620001e3919062000855565b60405180910390a3620001ff600083836200020860201b60201c565b5050565b505050565b505050565b6000604051905090565b600080fd5b600080fd5b600080fd5b600080fd5b6000601f19601f8301169050919050565b7f4e487b7100000000000000000000000000000000000000000000000000000000600052604160045260246000fd5b62000276826200022b565b810181811067ffffffffffffffff821117156200029857620002976200023c565b5b80604052505050565b6000620002ad6200020d565b9050620002bb82826200026b565b919050565b600067ffffffffffffffff821115620002de57620002dd6200023c565b5b620002e9826200022b565b9050602081019050919050565b60005b8381101562000316578082015181840152602081019050620002f9565b60008484015250505050565b6000620003396200033384620002c0565b620002a1565b90508281526020810184848401111562000358576200035762000226565b5b62000365848285620002f6565b509392505050565b600082601f83011262000385576200038462000221565b5b81516200039784826020860162000322565b91505092915050565b60008060408385031215620003ba57620003b962000217565b5b600083015167ffffffffffffffff811115620003db57620003da6200021c565b5b620003e9858286016200036d565b925050602083015167ffffffffffffffff8111156200040d576200040c6200021c565b5b6200041b858286016200036d565b9150509250929050565b600081519050919050565b7f4e487b7100000000000000000000000000000000000000000000000000000000600052602260045260246000fd5b600060028204905060018216806200047857607f821691505b6020821081036200048e576200048d62000430565b5b50919050565b60008190508160005260206000209050919050565b60006020601f8301049050919050565b600082821b905092915050565b600060088302620004f87fffffffffffffffffffffffffffffffffffffffffffffffffffffffffffffffff82620004b9565b620005048683620004b9565b95508019841693508086168417925050509392505050565b6000819050919050565b6000819050919050565b6000620005516200054b62000545846200051c565b62000526565b6200051c565b9050919050565b6000819050919050565b6200056d8362000530565b620005856200057c8262000558565b848454620004c6565b825550505050565b600090565b6200059c6200058d565b620005a981848462000562565b505050565b5b81811015620005d157620005c560008262000592565b600181019050620005af565b5050565b601f8211156200062057620005ea8162000494565b620005f584620004a9565b8101602085101562000605578190505b6200061d6200061485620004a9565b830182620005ae565b50505b505050565b600082821c905092915050565b6000620006456000198460080262000625565b1980831691505092915050565b600062000660838362000632565b9150826002028217905092915050565b6200067b8262000425565b67ffffffffffffffff8111156200069757620006966200023c565b5b620006a382546200045f565b620006b0828285620005d5565b600060209050601f831160018114620006e85760008415620006d3578287015190505b620006df858262000652565b8655506200074f565b601f198416620006f88662000494565b60005b828110156200072257848901518255600182019150602085019450602081019050620006fb565b868310156200074257848901516200073e601f89168262000632565b8355505b6001600288020188555050505b505050505050565b600082825260208201905092915050565b7f45524332303a206d696e7420746f20746865207a65726f206164647265737300600082015250565b6000620007a0601f8362000757565b9150620007ad8262000768565b602082019050919050565b60006020820190508181036000830152620007d38162000791565b9050919050565b7f4e487b7100000000000000000000000000000000000000000000000000000000600052601160045260246000fd5b600062000816826200051c565b915062000823836200051c565b92508282019050808211156200083e576200083d620007da565b5b92915050565b6200084f816200051c565b82525050565b60006020820190506200086c600083018462000844565b92915050565b61123880620008826000396000f3fe608060405234801561001057600080fd5b50600436106100a95760003560e01c80633950935111610071578063395093511461016857806370a082311461019857806395d89b41146101c8578063a457c2d7146101e6578063a9059cbb14610216578063dd62ed3e14610246576100a9565b806306fdde03146100ae578063095ea7b3146100cc57806318160ddd146100fc57806323b872dd1461011a578063313ce5671461014a575b600080fd5b6100b6610276565b6040516100c39190610b15565b60405180910390f35b6100e660048036038101906100e19190610bd0565b610308565b6040516100f39190610c2b565b60405180910390f35b61010461032b565b6040516101119190610c55565b60405180910390f35b610134600480360381019061012f9190610c70565b610335565b6040516101419190610c2b565b60405180910390f35b610152610364565b60405161015f9190610cdf565b60405180910390f35b610182600480360381019061017d9190610bd0565b61036d565b60405161018f9190610c2b565b60405180910390f35b6101b260048036038101906101ad9190610cfa565b6103a4565b6040516101bf9190610c55565b60405180910390f35b6101d06103ec565b6040516101dd9190610b15565b60405180910390f35b61020060048036038101906101fb9190610bd0565b61047e565b60405161020d9190610c2b565b60405180910390f35b610230600480360381019061022b9190610bd0565b6104f5565b60405161023d9190610c2b565b60405180910390f35b610260600480360381019061025b9190610d27565b610518565b60405161026d9190610c55565b60405180910390f35b60606003805461028590610d96565b80601f01602080910402602001604051908101604052809291908181526020018280546102b190610d96565b80156102fe5780601f106102d3576101008083540402835291602001916102fe565b820191906000526020600020905b8154815290600101906020018083116102e157829003601f168201915b5050505050905090565b60008061031361059f565b90506103208185856105a7565b600191505092915050565b6000600254905090565b60008061034061059f565b905061034d858285610770565b6103588585856107fc565b60019150509392505050565b60006012905090565b60008061037861059f565b905061039981858561038a8589610518565b6103949190610df6565b6105a7565b600191505092915050565b60008060008373ffffffffffffffffffffffffffffffffffffffff1673ffffffffffffffffffffffffffffffffffffffff168152602001908152602001600020549050919050565b6060600480546103fb90610d96565b80601f016020809104026020016040519081016040528092919081815260200182805461042790610d96565b80156104745780601f1061044957610100808354040283529160200191610474565b820191906000526020600020905b81548152906001019060200180831161045757829003601f168201915b5050505050905090565b60008061048961059f565b905060006104978286610518565b9050838110156104dc576040517f08c379a00000000000000000000000000000000000000000000000000000000081526004016104d390610e9c565b60405180910390fd5b6104e982868684036105a7565b60019250505092915050565b60008061050061059f565b905061050d8185856107fc565b600191505092915050565b6000600160008473ffffffffffffffffffffffffffffffffffffffff1673ffffffffffffffffffffffffffffffffffffffff16815260200190815260200160002060008373ffffffffffffffffffffffffffffffffffffffff1673ffffffffffffffffffffffffffffffffffffffff16815260200190815260200160002054905092915050565b600033905090565b600073ffffffffffffffffffffffffffffffffffffffff168373ffffffffffffffffffffffffffffffffffffffff1603610616576040517f08c379a000000000000000000000000000000000000000000000000000000000815260040161060d90610f2e565b60405180910390fd5b600073ffffffffffffffffffffffffffffffffffffffff168273ffffffffffffffffffffffffffffffffffffffff1603610685576040517f08c379a000000000000000000000000000000000000000000000000000000000815260040161067c90610fc0565b60405180910390fd5b80600160008573ffffffffffffffffffffffffffffffffffffffff1673ffffffffffffffffffffffffffffffffffffffff16815260200190815260200160002060008473ffffffffffffffffffffffffffffffffffffffff1673ffffffffffffffffffffffffffffffffffffffff168152602001908152602001600020819055508173ffffffffffffffffffffffffffffffffffffffff168373ffffffffffffffffffffffffffffffffffffffff167f8c5be1e5ebec7d5bd14f71427d1e84f3dd0314c0f7b2291e5b200ac8c7c3b925836040516107639190610c55565b60405180910390a3505050565b600061077c8484610518565b90507fffffffffffffffffffffffffffffffffffffffffffffffffffffffffffffffff81146107f657818110156107e8576040517f08c379a00000000000000000000000000000000000000000000000000000000081526004016107df9061102c565b60405180910390fd5b6107f584848484036105a7565b5b50505050565b600073ffffffffffffffffffffffffffffffffffffffff168373ffffffffffffffffffffffffffffffffffffffff160361086b576040517f08c379a0000000000000000000000000000000000000000000000000000000008152600401610862906110be565b60405180910390fd5b600073ffffffffffffffffffffffffffffffffffffffff168273ffffffffffffffffffffffffffffffffffffffff16036108da576040517f08c379a00000000000000000000000000000000000000000000000000000000081526004016108d190611150565b60405180910390fd5b6108e5838383610a7b565b60008060008573ffffffffffffffffffffffffffffffffffffffff1673ffffffffffffffffffffffffffffffffffffffff1681526020019081526020016000205490508181101561096b576040517f08c379a0000000000000000000000000000000000000000000000000000000008152600401610962906111e2565b60405180910390fd5b8181036000808673ffffffffffffffffffffffffffffffffffffffff1673ffffffffffffffffffffffffffffffffffffffff16815260200190815260200160002081905550816000808573ffffffffffffffffffffffffffffffffffffffff1673ffffffffffffffffffffffffffffffffffffffff16815260200190815260200160002060008282546109fe9190610df6565b925050819055508273ffffffffffffffffffffffffffffffffffffffff168473ffffffffffffffffffffffffffffffffffffffff167fddf252ad1be2c89b69c2b068fc378daa952ba7f163c4a11628f55a4df523b3ef84604051610a629190610c55565b60405180910390a3610a75848484610a80565b50505050565b505050565b505050565b600081519050919050565b600082825260208201905092915050565b60005b83811015610abf578082015181840152602081019050610aa4565b60008484015250505050565b6000601f19601f8301169050919050565b6000610ae782610a85565b610af18185610a90565b9350610b01818560208601610aa1565b610b0a81610acb565b840191505092915050565b60006020820190508181036000830152610b2f8184610adc565b905092915050565b600080fd5b600073ffffffffffffffffffffffffffffffffffffffff82169050919050565b6000610b6782610b3c565b9050919050565b610b7781610b5c565b8114610b8257600080fd5b50565b600081359050610b9481610b6e565b92915050565b6000819050919050565b610bad81610b9a565b8114610bb857600080fd5b50565b600081359050610bca81610ba4565b92915050565b60008060408385031215610be757610be6610b37565b5b6000610bf585828601610b85565b9250506020610c0685828601610bbb565b9150509250929050565b60008115159050919050565b610c2581610c10565b82525050565b6000602082019050610c406000830184610c1c565b92915050565b610c4f81610b9a565b82525050565b6000602082019050610c6a6000830184610c46565b92915050565b600080600060608486031215610c8957610c88610b37565b5b6000610c9786828701610b85565b9350506020610ca886828701610b85565b9250506040610cb986828701610bbb565b9150509250925092565b600060ff82169050919050565b610cd981610cc3565b82525050565b6000602082019050610cf46000830184610cd0565b92915050565b600060208284031215610d1057610d0f610b37565b5b6000610d1e84828501610b85565b91505092915050565b60008060408385031215610d3e57610d3d610b37565b5b6000610d4c85828601610b85565b9250506020610d5d85828601610b85565b9150509250929050565b7f4e487b7100000000000000000000000000000000000000000000000000000000600052602260045260246000fd5b60006002820490506001821680610dae57607f821691505b602082108103610dc157610dc0610d67565b5b50919050565b7f4e487b7100000000000000000000000000000000000000000000000000000000600052601160045260246000fd5b6000610e0182610b9a565b9150610e0c83610b9a565b9250828201905080821115610e2457610e23610dc7565b5b92915050565b7f45524332303a2064656372656173656420616c6c6f77616e63652062656c6f7760008201527f207a65726f000000000000000000000000000000000000000000000000000000602082015250565b6000610e86602583610a90565b9150610e9182610e2a565b604082019050919050565b60006020820190508181036000830152610eb581610e79565b9050919050565b7f45524332303a20617070726f76652066726f6d20746865207a65726f2061646460008201527f7265737300000000000000000000000000000000000000000000000000000000602082015250565b6000610f18602483610a90565b9150610f2382610ebc565b604082019050919050565b60006020820190508181036000830152610f4781610f0b565b9050919050565b7f45524332303a20617070726f766520746f20746865207a65726f20616464726560008201527f7373000000000000000000000000000000000000000000000000000000000000602082015250565b6000610faa602283610a90565b9150610fb582610f4e565b604082019050919050565b60006020820190508181036000830152610fd981610f9d565b9050919050565b7f45524332303a20696e73756666696369656e7420616c6c6f77616e6365000000600082015250565b6000611016601d83610a90565b915061102182610fe0565b602082019050919050565b6000602082019050818103600083015261104581611009565b9050919050565b7f45524332303a207472616e736665722066726f6d20746865207a65726f20616460008201527f6472657373000000000000000000000000000000000000000000000000000000602082015250565b60006110a8602583610a90565b91506110b38261104c565b604082019050919050565b600060208201905081810360008301526110d78161109b565b9050919050565b7f45524332303a207472616e7366657220746f20746865207a65726f206164647260008201527f6573730000000000000000000000000000000000000000000000000000000000602082015250565b600061113a602383610a90565b9150611145826110de565b604082019050919050565b600060208201905081810360008301526111698161112d565b9050919050565b7f45524332303a207472616e7366657220616d6f756e742065786365656473206260008201527f616c616e63650000000000000000000000000000000000000000000000000000602082015250565b60006111cc602683610a90565b91506111d782611170565b604082019050919050565b600060208201905081810360008301526111fb816111bf565b905091905056fea264697066735822122076cfdd81048954825f4f9910a69bde7016b3345ca041a1da32395ea9064d4cd864736f6c63430008150033",
  "immutableReferences": {},
  "source": "// SPDX-License-Identifier: MIT\n\npragma solidity ^0.8.21;\n\nimport \"@openzeppelin/contracts/token/ERC20/ERC20.sol\";\n\ncontract CustomToken is ERC20 {\n    constructor(string memory name, string memory symbol) ERC20(name, symbol){\n        _mint(msg.sender, 100000000000000000000000 * 10 ** 18);\n    }\n}\n\ncontract MoonBoysSwap {\n    // Custom tokens to be initialized\n    string[] public tokens = [\"MOB\", \"XXX\", \"XYZ\"];\n\n    // map to maintain the tokens and its instances\n    mapping(string => ERC20) public tokenInstanceMap;\n\n    // Updated conversion rate: 1 VSG = $0.008095\n    uint256 vsgValue = 8095000000000000; // 0.008095 VSG equivalent in wei\n\n    constructor() {\n        for (uint i = 0; i < tokens.length; i++) {\n            CustomToken token = new CustomToken(tokens[i], tokens[i]);\n            tokenInstanceMap[tokens[i]] = token;\n        }\n    }\n\n    function getBalance(string memory tokenName, address _address) public view returns (uint256) {\n        return tokenInstanceMap[tokenName].balanceOf(_address);\n    }\n\n    function getTotalSupply(string memory tokenName) public view returns (uint256) {\n        return tokenInstanceMap[tokenName].totalSupply();\n    }\n\n    function getName(string memory tokenName) public view returns (string memory) {\n        return tokenInstanceMap[tokenName].name();\n    }\n\n    function getTokenAddress(string memory tokenName) public view returns (address) {\n        return address(tokenInstanceMap[tokenName]);\n    }\n\n    function getVsgBalance() public view returns (uint256) {\n        return address(this).balance;\n    }\n\n    function approveToken(string memory tokenName, address spender) external {\n        tokenInstanceMap[tokenName].approve(spender, type(uint256).max);\n    }\n\n    function swapVsgToToken(string memory tokenName) public payable returns (uint256) {\n        uint256 inputValue = msg.value;\n        uint256 outputValue = (inputValue * 10 ** 18) / vsgValue; // Adjusted conversion calculation\n        require(tokenInstanceMap[tokenName].transfer(msg.sender, outputValue), \"Token transfer failed.\");\n        return outputValue;\n    }\n\n    function swapTokenToVsg(string memory tokenName, uint256 _amount) public returns (uint256) {\n        uint256 exactAmount = (_amount * vsgValue) / 10 ** 18; // Adjusted conversion calculation\n        require(address(this).balance >= exactAmount, \"Dex is running low on balance.\");\n\n        require(tokenInstanceMap[tokenName].transferFrom(msg.sender, address(this), _amount), \"Token transfer failed.\");\n        payable(msg.sender).transfer(exactAmount);\n        return exactAmount;\n    }\n\n    function swapTokenToToken(string memory srcTokenName, string memory destTokenName, uint256 _amount) public {\n        require(tokenInstanceMap[srcTokenName].transferFrom(msg.sender, address(this), _amount), \"Source token transfer failed.\");\n        require(tokenInstanceMap[destTokenName].transfer(msg.sender, _amount), \"Destination token transfer failed.\");\n    }\n}\n",
  "sourcePath": "C:\\Users\\ANON\\Downloads\\uniswap-clone-infura-youtube-main\\uniswap-clone-infura-youtube-main\\uniswap-contracts\\contracts\\CustomDex.sol",
  "compiler": {
    "name": "solc",
    "version": "0.8.21+commit.d9974bed.Emscripten.clang"
  },
  "schemaVersion": "3.4.16",
  "updatedAt": "2024-12-27T02:45:59.328Z",
  "devdoc": {
    "kind": "dev",
    "methods": {},
    "version": 1
  },
  "userdoc": {
    "kind": "user",
    "methods": {},
    "version": 1
  }
}